:020000040800F2
:10000000800F0020C9000008D51F0008531B0008FE
:1000100000000000000000000000000000000000E0
:10002000000000000000000000000000572500084C
:1000300000000000000000001D200008432A000806
:10004000DB00000800000000DB000008DB00000807
:10005000DB000008DB000008DB00000829050008C1
:1000600000000000DB000008DB000008DB000008E7
:10007000DB000008212B0008DB0000080000000066
:10008000DB000008DB00000800000000DB000008C7
:10009000DB000008DB000008DB000008DB000008D4
:1000A000DB000008DB000008DB000008612F00080F
:1000B0008D2F00080348854600F0AAF80048004745
:1000C00001390008800F0020044880470448004799
:1000D000FEE7FEE7FEE7FEE7FEE7FEE7C52A0008CB
:1000E000B500000830B50B4601460020202201244F
:1000F00009E00D46D5409D4205D31D469540491B5C
:100100002546954040191546521E002DF1DC30BDA4
:1001100010B5202A04DB0846203AD040002110BD4B
:100120000B46D340D0402024A21A914008431946E0
:1001300010BD10B5431A934209D28318881803E002
:10014000401E01785B1E1970521EF9D210BD034685
:100150000B439B0703D009E008C9121F08C0042AFB
:10016000FAD203E00B780370401C491C521EF9D2EE
:1001700010BDD2B201E00270401C491EFBD2704794
:100180000022F6E710B513460A4604461946FFF763
:10019000F0FF204610BD30B504460020034600E0C5
:1001A0005B1C934203D2E05CCD5C401BF8D030BDB9
:1001B000F0B51FB40646002082B0054640240191E8
:1001C00000901BE0019922460F463046FFF7A0FF42
:1001D000049A059B801A994110D31046194622466D
:1001E00000F028F8361A8F4101972246012000219D
:1001F000009F00F01FF838184D4100902046641E03
:100200000028DFDC019B00982946324607B0F0BD8C
:10021000064C0125064E05E0E36807CC2B430C3C59
:1002200098471034B442F7D3FFF748FF2440000842
:100230004440000810B5202A04DB0146203A9140D2
:10024000002010BD914020239C1A0346E34019432F
:10025000904010BD10B510220A490B48FFF769FF06
:1002600008490948032211311030FFF762FF0648A0
:10027000203801F041FF04480449203803F0F1FA26
:1002800010BD000019000020680B0020980A002013
:1002900070B5144C0025A07A134E142813D9E088A9
:1002A000002810D0204602F0E5FEE28830462168A2
:1002B00002F082FE0D48A37901780D48226802F011
:1002C000F9FAE580A5720B4C607A062809D1A2885C
:1002D0003046216802F070FE65722179206800F0D6
:1002E00091F870BD840000200038014046000020D5
:1002F000500200209000002070B5114D2878114C5C
:1003000003280BD1104911488A78C91D02F054FE08
:100310002878032802D1207802F092FA287806285B
:1003200009D02878042805D10949002008802078C0
:1003300002F086FA70BD07A002F068FFF7E7000040
:1003400043000020460000205002002000380140F9
:1003500044000020576972656C6573735F54585F81
:1003600046696E6973680D0A0000000070B50446A6
:100370000C4800220C4E11E02578521C2B464340BD
:100380001B07DB0EF35A00094340280958400007B9
:10039000C00E305A1B09584092B2641C8A42EBD3FB
:1003A00070BD0000FFFF0000B23D000870B50646BA
:1003B000002001F035FF01240925E403ED060022A9
:1003C0002146284600F056FB342001F08FFF3046CE
:1003D00001F08CFF01222146284600F04BFB70BD46
:1003E00010B50F220549064802F021F80348002104
:1003F00081762B21C1765B21017710BD1000002092
:1004000000F80008FEB50D4604462EA103C9009071
:100410000191A81E81B22046FFF7A8FF611920397B
:100420008A7FC97F12025118814249D1FFF7D8FF54
:1004300060782649202817D0302841D131206070BB
:100440000820A0700246E01C491CFFF772FEA1784C
:100450002046C91CFFF78AFF010AE1722073A278C7
:1004600021461B48521D29E001260D460E70082228
:10047000E11C681CFFF75DFE164F0F22134938463A
:1004800001F0E2FFFFF7ACFF0822691CE01CFFF758
:1004900082FE00280FD0222168464170867000211C
:1004A000C170DE220271BD22427129700F220749FC
:1004B000384601F0C9FF06226946054802F07CFD76
:1004C000FEBD0000682101FF9E0D0000100000200D
:1004D0000038014000F80008F8B50024FFF780FF5D
:1004E0000D4E0E4D0E4F3078012814D0687A062834
:1004F00005D100206872A9792868FFF783FF641C82
:10050000BC4204D900240C21064802F064FD0120FD
:1005100003F060F9E7E7F8BD10000020900000202C
:10052000DC0500000038014010B5402000F0F2F971
:1005300010BD0000064A0021D16106490A69022364
:100540001A430A61486108694022104308617047F4
:10055000300200200020024010B5054B0022DA6175
:10056000044A1369012423431361018010BD000074
:10057000300200200020024010B50B4A0020D16854
:10058000CB060A4904D5C86902231843C861102064
:10059000D3685B0705D5CB6901242343CB610421D4
:1005A0000843D06010BD000000200240300200204F
:1005B00070B5054600F064FA0646104C0AE0681C67
:1005C00008D0002D04D000F05BFA801BA84201D9AE
:1005D000032070BDE068C007F1D1E068800601D556
:1005E0002020E060E068C00602D4E068400703D540
:1005F000FFF7C2FF012070BD002070BD0020024047
:10060000F8B50546002001F00BFE01260927F60388
:10061000FF0600223146384600F02CFA0024285DFF
:1006200001F064FE641CE4B2082CF8D301223146C8
:10063000384600F01FFAF8BDFFB5044681B01F46EA
:10064000002001F0EDFD01250926ED03F60600224C
:100650002946304600F00EFA202001F047FE0298AD
:1006600001F044FE039801F041FE384601F03EFEE1
:1006700001222946304600F0FDF9012001F0D0FDAD
:100680000027AA2001F032FEE0557F1CFFB2082FA0
:10069000F7D301222946304600F0ECF905B0F0BD51
:1006A00070B5002001F0BCFD01250926ED03F6061A
:1006B00000222946304600F0DDF9222001F016FE26
:1006C00001222946304600F0D5F9012001F0A8FDAD
:1006D000AA2001F00BFE134C2070AA2001F006FEA8
:1006E0006070AA2001F002FEA070AA2001F0FEFDB9
:1006F000E070AA2001F0FAFD2071AA2001F0F6FDB9
:100700006071AA2001F0F2FD0002E080AA2001F051
:10071000EDFDE1880843E08001222946304600F0E3
:10072000A9F970BD5605002070B5002001F078FDD4
:1007300001250926ED03F60600222946304600F081
:1007400099F9012001F0D2FD01222946304600F03E
:1007500091F9012001F064FDAA2001F0C7FD154CBC
:100760002070AA2001F0C2FD00026080AA2001F0E2
:10077000BDFD618808436080AA2001F0B7FD2071AB
:10078000AA2001F0B3FD0002E080AA2001F0AEFD36
:10079000E1880843E080AA2001F0A8FD2072AA2089
:1007A00001F0A4FD607201222946304600F062F992
:1007B00070BD0000560500200F498A7ECB7E097F60
:1007C000D218511807D0C906890E4A1C0170427010
:1007D0000A2903D006E00A21017002E00C21017011
:1007E0000D214170027805498B5C054AD371407830
:1007F000085C10727047000010000020CC3900081F
:100800007200002070B50024014620314A78022A87
:1008100003D004218163012416E0026813680E25C9
:10082000AB431360026813685B085B00136001222E
:10083000056C1346AB40C56B6B604A7000220A70B2
:10084000416B002900D08847204670BD03480169EC
:100850008022114301610020704700000020024007
:10086000F0B51FB407461A480024017E15461E46FF
:10087000012907D0012101761648FFF799FE0028CB
:1008800003D020E0022005B0F0BD012F02D0022FDE
:1008900000D00427220128463146FFF739FC81B2F7
:1008A000019862001018FFF757FE0A48FFF780FE14
:1008B00009490A69520852000A61002803D1641CE0
:1008C000E4B2BC42E6D3024900220A76DBE700002C
:1008D0003002002050C3000000200240054801699A
:1008E000090605D50449416004494160002070476C
:1008F000012070470020024023016745AB89EFCDFE
:1009000010B5402802D1024801F046FE10BD00009B
:100910005002002010B504494A69024202D04861E1
:10092000FFF7EEFF10BD000000040140F8B5002302
:100930008DE001249C40A44622407DD04C68022CCE
:1009400001D0122C0CD1DC08A40027183C6A5D07EA
:10095000ED0E0F26AE40B4430E69AE4026433E6214
:1009600005685E000324B4400F79A543BF07BF0F9D
:10097000B7402F4307604D68012D05D0022D03D0ED
:10098000112D01D0122D0ED18568CF68A543B74037
:100990002F43876047686546AF430D79ED06ED0F3D
:1009A0009D403D434560C568A5438C68B4402C43D9
:1009B000C4604C68E40049D5284CA569012635433C
:1009C000A561A4699D0834400094254CAD002F1901
:1009D000BC689D072E0F0F25B540AC430925ED06D9
:1009E000A84201D100250FE01E4DA84201D10125EA
:1009F0000AE01D4DA84201D1022505E01B4DA84289
:100A000001D1032500E00525B5402543BD60184C04
:100A100025684E689543F60300D515432560656843
:100A20004E689543B60300D515436560A5684E68CA
:100A30009543F60202D500E008E01543A560E5689D
:100A40004E689543B60200D51543E5605B1C0A6805
:100A50001446DC4000D06CE7F8BD000000100240F6
:100A6000000001400004004800080048000C004855
:100A700000040140002A01D0816170478162704703
:100A800001480068704700003400002002480168F7
:100A9000491C0160704700003400002010B5064872
:100AA0000168102211430160002000F007F800F0F7
:100AB00017F8002010BD00000020024010B50446C9
:100AC00000F048F97D21C900FFF70CFB00F0F0FCB5
:100AD00000222146501E00F02FF8002010BD00001B
:100AE00008B50F4881690122114381618169114074
:100AF0000091C26901040A43C261C0690022084032
:100B000000901146501F00F017F800221146901E69
:100B100000F012F800221146501E00F00DF808BD3A
:100B200000100240C106C90E01208840014908603A
:100B30007047000000E100E010B501F04DFA10BD73
:100B4000F8B505460068354CC00352D5E06900266B
:100B5000C00007D4E16920040143E161E16901407B
:100B6000012600912E480168C90510D4016882153C
:100B700011430160FFF784FF074604E0FFF780FFA1
:100B8000C01B642824D826480068C005F6D5206A12
:100B900003273F02384020D06968394081421CD089
:100BA000206A226AB843012109040A432262226AA8
:100BB0008A4322622062C0070FD0FFF761FF0090D6
:100BC00008E0FFF75DFF0099411A1648814201D9FC
:100BD0000320F8BD206A8007F3D5206A6968B8430E
:100BE00008432062002E04D0E16901200007814300
:100BF000E1612878C00705D0206BA96880088000D3
:100C0000084320632878800605D5206B102188438F
:100C1000E968084320630020F8BD0000001002408E
:100C20000070004088130000F8B5054644480E46A1
:100C30000068C007C00FB0420AD2414801684908A5
:100C40004900314301600068C007C00FB0425CD169
:100C500028783C4C800705D56068F0218843A96856
:100C6000084360602878C0073FD06868012813D027
:100C70002168022813D08907002946DA61688908AB
:100C8000890001436160FFF7FBFE6968074601299F
:100C90000DD0022917D024E021688903ECE78901EF
:100CA000EAE7FFF7EDFEC11B2748814217D86068CD
:100CB0000007800F0128F4D117E0FFF7E1FEC11B08
:100CC000214881420BD860680007800F0228F4D1C8
:100CD0000BE0FFF7D5FEC11B1B48814201D9032061
:100CE000F8BD60680007800FF3D115480168C90797
:100CF000C90FB1420BD9016849084900314301606D
:100D00000068C007C00FB04201D00120F8BD2878AC
:100D1000400706D56068072109028843E96808434F
:100D2000606000F02DF86168084A0906090F515CFF
:100D3000C840074908600020FFF7C0FE0020F8BD4A
:100D4000002002400010024088130000B43900085F
:100D5000380000200148006870470000380000207B
:100D60000448054900684968044A4905490F515C2F
:100D7000C84070473800002000100240C439000805
:100D800010B512A30FCB88B06C460FC413A30FCBC2
:100D90000FC416494A680C20134603401448042B1C
:100DA0000FD0082B0DD193021B0F6C46E45CC96A6F
:100DB00004AB0907090F595CD20304D5FFF792F978
:100DC000604308B010BD0B486043FAE70203040516
:100DD000060708090A0B0C0D0E0F10100102030480
:100DE00005060708090A0B0C0D0E0F100010024033
:100DF00000127A0000093D00FEB504460078D04D8F
:100E0000C00747D068680007800F012807D06868CE
:100E10000007800F022809D16868C00306D528683A
:100E2000800337D5606800287ED033E001206268F7
:100E30000004012A11D08100002A01D0052A10D017
:100E40002A6882432A6028688843286060680028EE
:100E500014D0FFF715FE06460CE02968014329600F
:100E6000F4E72A680A432A60F7E7FFF709FE801BC8
:100E700064286FD828688003F7D50BE0FFF700FEE1
:100E8000064604E0FFF7FCFD801B6428F1D82868C3
:100E90008003F7D420780126800700283BDA6868B1
:100EA0000007800F07D068680007800F022809D16B
:100EB0006868C00306D42868800715D5E068012853
:100EC00032D111E0E0680028286815D0304328604E
:100ED000FFF7D6FD074604E0FFF7D2FDC01B02284E
:100EE000C7D828688007F7D52868F8218843216982
:100EF000C900084328600EE0400840002860FFF762
:100F0000BFFD074604E0FFF7BBFDC01B0228B0D8B9
:100F100028688007F7D42078000724D5E0690028E6
:100F2000686A10D0304300E008E16862FFF7A8FD6E
:100F3000074604E0FFF7A4FDC01B022899D8686AA1
:100F40008007F7D50FE0400840006862FFF798FD82
:100F5000074605E09DE0FFF793FDC01B022888D8F7
:100F6000686A8007F7D4207804274007002860DAF1
:100F700000200190E869C00008D4E969B80601437F
:100F8000E961E96901400120009101906D48016823
:100F9000C90511D40168821511430160FFF770FD86
:100FA000009005E0FFF76CFD0099401A642870D8A6
:100FB00064480068C005F5D5A06801280AD000285B
:100FC00001D0052810D0286A400840002862286A0D
:100FD000B84301E0286A30432862A068002812D094
:100FE000FFF74EFD00900AE0286A38432862F1E7D7
:100FF000FFF746FD0099411A5348814249D8286AB3
:101000008007F5D50DE0FFF73BFD009006E0FFF708
:1010100037FD0099411A4C4881423AD8286A800726
:10102000F5D40198002804D0E96901200007814324
:10103000E9612078C00635D5606901280CD0401DD3
:10104000686B23D038436863686B4008400068636E
:10105000FFF716FD064622E0686B38436863686B4D
:1010600030436863FFF70CFD064604E0FFF708FD18
:10107000801B02285BD8686B8007F7D5686BF82166
:101080008843A169C900084368630BE0B8436863FB
:10109000F4E74CE0FFF7F4FC801B022847D8686BAC
:1010A0008007F7D4206A002846D069680907890FAD
:1010B000022943D0012636060228286805D0B0430D
:1010C0002860FFF7DDFC044633E0B0432860FFF7FB
:1010D000D7FC074604E0FFF7D3FCC01B022826D844
:1010E00028688001F7D4E86AE16A00090001084332
:1010F000E862616AA06A084369683D22120491436C
:1011000008436860286830432860FFF7B9FC04464C
:1011100004E0FFF7B5FC001B022808D8286880010E
:10112000F7D509E0FFF7ACFC001B022801D903202A
:10113000FEBD28688001F5D40020FEBD0120FEBD63
:10114000001002400070004088130000F8B5040051
:1011500007D0002625464035A662687F002802D0C9
:1011600005E00120F8BD2E77204600F04BF8022361
:101170006B77206801684022914301600721E06895
:101180000902884201D9002201E0012212030F273F
:101190003F02B84202D0884200D0A662276B002FDF
:1011A00005D1884201D9236301E001202063A168B1
:1011B0006068636908432169194308430123A169F1
:1011C0005B0219400843E1690843216A0843A16AA8
:1011D000084321680860616B606AA36908431B0CBF
:1011E0000427E1683B4019430843216810434860E5
:1011F0002068C1697A029143C1612666012068773F
:101200000020F8BD00B500680D4987B0884214D1B0
:101210000C48826981140A43826180690840059004
:1012200038200090022000210190032002910491B7
:10123000039069460448FFF779FB07B000BD000042
:10124000003001400010024000040048FFB5044691
:1012500083B00120254640350090287F00270E46A8
:1012600001280FD001202877FFF70AFC0190687F42
:10127000616801280DD0CA1FFD3A08D1A168002974
:1012800005D102E0022007B0F0BD042801D00227FA
:10129000FAE0002E7CD005980028FBD006980028A4
:1012A000F8D0687F042801D00520687700202066E8
:1012B000059921640699E9800699A980A663069993
:1012C000E1870699A187E06420650723E1681B0296
:1012D000994202D8E888012806D92068426801218D
:1012E00009038A43426005E0206841680122120335
:1012F0001143416020680168490603D40168402217
:1013000011430160E1686068994242D9002802D027
:10131000E08F012835D121683088C860E08F401EF9
:10132000E087B61C2DE0009800280ED0E08F002842
:101330000BD020688168890707D53188C160E08FAC
:10134000401EE0870020B61C0090E88800280ED0E0
:1013500020688168C9070AD0C06805990880059887
:10136000801C0590E888401EE880012000900C98C1
:10137000401C06D0FFF784FB0199411A0C9881426A
:101380006DD2E08F0028CED1E8880028CBD16EE066
:1013900079E0002802D0E08F012862D1E08F012897
:1013A00007D921683088C860E08F801EE087B61CAE
:1013B00057E0216830780873E08F401EE087761C84
:1013C0004FE00098002818D0E08F002815D0206842
:1013D0008168890711D5E18F012906D93188C1605B
:1013E000E08F801EE087B61C05E031780173E08F46
:1013F000401EE087761C00200090E888002824D05A
:1014000020688168C90720D0E988012912D9C068FD
:10141000059908800598801C0590E888801EE88062
:10142000E88801280FD8206841680122120311437F
:10143000416008E0017B059801700598401C05900B
:10144000E888401EE880012000900C98401C08D0DD
:10145000FFF716FB0199401A0C99884201D3032724
:1014600012E0E08F0028ACD1E8880028A9D12046FE
:10147000019A0C9900F014FF002801D0202020666A
:10148000206E002800D001270120687700202877EF
:101490003846F8E6042204490428086902D090433B
:1014A000086170471043FBE700E000E07047000070
:1014B000094910B5401E884201D9012010BD074CD2
:1014C00060610321081F00F087FD0020A061072054
:1014D0002061002010BD0000FFFFFF0000E000E0E1
:1014E00010B5FFF7E3FF10BD7047704770B50246B7
:1014F0002032137F012B1BD0012313770224547752
:10150000046865687026B5436560046865680E68A0
:10151000354365600468A5688026B543A56000680A
:10152000846849680C43846053770020107770BD4D
:10153000022070BD70B5040005D025462035687FB7
:10154000002802D006E0012070BD00202877204648
:1015500000F00AF802206877211D206801F0E8FAFF
:1015600001206877002070BD08B5006809498842ED
:101570000FD109488269C1140A438261806900223F
:101580000840009011460D20FFF7D6FA0D20FFF716
:10159000C9FA08BD002C0140001002400268D3685F
:1015A00001210B43D360006802680A4302600020F7
:1015B0007047F8B5054604462035287F012817D026
:1015C00001272F7702206877226890687726FF230B
:1015D000B0431B02984390600868502837D00EDC57
:1015E000202857D006DC00284ED0102840D14EE0ED
:1015F0000220F8BD302850D0402839D13CE0602886
:101600002DD0702817D001221203801A0ED09042DC
:101610002ED1CB684A688968206801F0CDFA20682D
:101620008168012292031143816021E02068816872
:10163000C908C900F8E7CB684A688968206801F0E2
:10164000BBFA21688868B0433043886010E0CA68FC
:101650004968206801F0C3FA5021206806E0CA6892
:101660004968206801F0CCFA6021206801F0AFFAE7
:101670006F7700202877F8BDCA684968206801F0B4
:10168000AEFA40212068F1E700212068EEE7102142
:101690002068EBE720212068E8E730212068E5E7B3
:1016A000704770B50446006801690025C943890781
:1016B000002915DBC168C943890711D4E91E0161FE
:1016C00001202077206880698007204602D0FFF73C
:1016D000E7FF04E000F096F8204600F094F8257744
:1016E00020680169C943490717D4C168C94349073C
:1016F00013D40421C9430161022020772068806946
:101700008005800F204602D0FFF7CAFF04E000F0FA
:1017100079F8204600F077F8257720680169C943F9
:10172000090716D4C168C943090712D40821C9435F
:101730000161042020772068C0698007204602D01C
:10174000FFF7AEFF04E000F05DF8204600F05BF824
:10175000257720680169C943C90617D4C168C94300
:10176000C90613D41021C9430161082020772068DD
:10177000C0698005800F204602D0FFF791FF04E08A
:1017800000F040F8204600F03EF825772068016917
:10179000C943C90708D1C168C943C90704D1891E13
:1017A0000161204600F030F820680169C94309064C
:1017B00009D4C168C943090605D48021C943016120
:1017C0002046FFF791FE20680169C943490609D404
:1017D000C168C943490605D44021C9430161204677
:1017E00000F020F820680169C943890609D4C1685E
:1017F000C943890605D42021C94301612046FFF76A
:1018000074FE70BD704770470449887A401C887226
:1018100003480168491C01607047000084000020F3
:10182000300000207047704701466031487A897A5D
:1018300008437047F8B503680446D96918680D076E
:101840002D0F07D18A0605D5820603D5204601F063
:101850007EFAF8BD9A68002D64D0D507ED0FFF26FB
:10186000213606402E435DD0CE0706D0C60504D5EE
:1018700001261E62E36E3343E3668F0702230426CC
:10188000002F06DAD70704D027683B62E76E37439C
:10189000E7664F0706D5D20704D022681662E26ECB
:1018A0001A43E2660A0709D5202202402A4305D0DE
:1018B000236808221A62E36E1343E366E26E002A8D
:1018C000C7D0890604D5800602D5204601F03FFA2C
:1018D000E06E000703D42068806840061CD52046CF
:1018E00001F019FA20688168490611D58168402203
:1018F00091438160606E00280AD012494163606E96
:10190000FEF780FF0028A4D0606E416B8847F8BDC9
:101910002046FFF788FFF8BD2046FFF784FF002030
:10192000E066F8BD0A0605D5020603D5204601F09B
:10193000E3FAF8BD4906FCD54006FAD5204601F089
:10194000F9F9F8BD032D000870B5040005D025464F
:101950006035687A002802D006E0012070BD0020C2
:101960002872204600F026F824206872206801685A
:10197000490849000160204601F026FA0128EDD00F
:10198000606A002802D0204601F04DF920684168C5
:101990000122D2029143416020688168082291436C
:1019A000816020680168012211430160204601F036
:1019B0009FF970BDF0B506681E4F092000221E4930
:1019C000022303240125C00687B0BE4215D18F69CA
:1019D0005E0337438F61896901933140059161024C
:1019E000009102AE34C66946FEF7A0FF0022114600
:1019F0001B20FFF7A1F81B2018E0104FBE4217D1A3
:101A0000CF69012676043743CF61C969019331401C
:101A100005910C21009102AE34C66946FEF786FF9F
:101A2000002211461C20FFF787F81C20FFF77AF8E8
:101A300007B0F0BD003801400010024000440040F3
:101A400070B5034660339C7A202C39D100290BD025
:101A5000002A09D0012584682D03AC4206D106690D
:101A6000002E03D1CE0701D0012070BD1E7A012EB9
:101A700026D001261E724165014640310A834A8301
:101A8000FF22AC4204D10469002C07D10D4A05E0C5
:101A9000002C04D10469002C00D07F228A8300210D
:101AA000C16622229A72197201688A6832438A607A
:101AB00000680168FF22213211430160002070BDDF
:101AC000022070BDFF010000F8B5054600681A4904
:101AD00000261A4C884214D11A4F1949387801F05F
:101AE0007FFA207A00280CD1A672E2882168387823
:101AF0008854E088401C80B2E080FA2801D9FA209E
:101B0000E08011492868884214D1104D0C4928788A
:101B100001F066FA207A00280CD1A672E2882168CA
:101B200028788854E088401C80B2E080FA2801D9E7
:101B3000FA20E080F8BD0000003801408400002059
:101B4000900000203C000020004400403D000020A8
:101B50007047FEE730B500230BE0C55CCC5CA542C6
:101B600001D9012030BDA54201D2022030BD5B1C4D
:101B7000DBB29342F1D3002030BDF3B50C46112106
:101B8000204600F02BF901461120411ACEB2801BED
:101B9000C2B2A1190D46009800F0F0F800241220FE
:101BA000871B07E00098FAB2691E001900F0E6F8FA
:101BB000641CE4B2B442F5D3FCBD00214218527853
:101BC0004254491CC9B21029F8D30021017470474E
:101BD00070B50024012B0ED01023C518203DED7FD9
:101BE0004D432C19A4B2D4545B1E240A1B061B0EB1
:101BF000F3D1147070BD1023C518203DED7FD65C65
:101C00004D43AD192C19A4B2D4545B1E240A1B06F3
:101C10001B0EF1D110780019107070BDFFB50C4685
:101C200016461021204600F0D9F81021091A0D1986
:101C300000210A467254491CC9B21129FAD3002462
:101C4000471E11E0012332460098FFF7C1FF3046DE
:101C50000399FFF792FF3046FFF7AFFF3046039935
:101C6000FFF78BFF641CE4B2295DBC42EADB012371
:101C700032460098FFF7ACFF30460399FFF77DFF2F
:101C8000FFBD0000FFB583B01D4617460826102192
:101C9000104600F0A3F804006BD0102204990398BA
:101CA000FEF747FA1020001BC019009000780021B1
:101CB000020607D44006761E491C000EC9B2F6B2D1
:101CC0000829F5D34006070E761EF0B200260190D3
:101CD0001BE003992A4608460C9BFFF79FFF102242
:101CE000691C0398FEF725FA38060AD52A460C9B8C
:101CF00003990498FFF792FF1022691C0398FEF7DE
:101D000018FA7806070E761CF6B201988642E0D3E0
:101D100000980021401C00901748671E017024E0C5
:101D2000009A0024565C03992A4608460C9BFFF74C
:101D300075FF1022691C0398FEF7FBF930060AD5DF
:101D40002A460C9B03990498FFF768FF1022691C30
:101D50000398FEF7EEF97006641C060EE4B2082C38
:101D6000E1D305480178491C017003480178B94264
:101D7000D6DB07B0F0BD0000A0000020F0B517468C
:101D80000C46054622E000203A461DE0AE18A11898
:101D9000203E2039F37FC97F994207D1002803D024
:101DA000591A491EC9B20CE000210AE0994204D236
:101DB000181A401AC1B2002003E0181A401AC1B222
:101DC0000120521EF177D2B2002ADFD13A462146D5
:101DD0002846FFF7BFFE0228D5D1F0BD002207E05C
:101DE000835C002B02D0881AC0B27047521CD2B25A
:101DF0008A42F5D300207047F0B52C4887B042697D
:101E0000012149040A43426142690A40059242693C
:101E100049000A434261406909270840FF060590CE
:101E2000002223493846FEF725FE07210022C9017A
:101E30002048FEF71FFE2220002401250090029476
:101E40006946019503943846FEF770FDE8030326C2
:101E5000009069460396019502943846FEF766FDA8
:101E60004020009014480190694602941148FEF702
:101E70005DFD8020009069460396019502940D480F
:101E8000FEF754FD300200900294694601950394D8
:101E90000848FEF74BFD002211460720FEF74CFED6
:101EA0000720FEF73FFE07B0F0BD00000010024023
:101EB00022800000000400480000211010B51148E5
:101EC0000F490160FF210531416000210722816037
:101ED00012020161C260012241615202826101620B
:101EE00010224162C26181620722C262016308213D
:101EF0004163FFF72BF9002800D0FEE710BD00007A
:101F000000300140A800002010B5154886B01349E4
:101F1000016000242F218460416004617D214461BF
:101F2000C9008461C160FFF705FB002800D0FEE70F
:101F300001200003009069460948FFF73AFB00289A
:101F400000D0FEE7049404A905480594FFF7CEFAF3
:101F5000002800D0FEE706B010BD0000002C0140B4
:101F60000C01002010B50C480A4901604B214902C0
:101F7000416000218160C16001618161C1610C2209
:101F8000016242614162FFF7DFFC002800D0FEE7FA
:101F900010BD0000003801404C01002010B50C4875
:101FA0000A4901604B214902416000218160C16002
:101FB00001618161C1610C22016242614162FFF7EE
:101FC000C3FC002800D0FEE710BD00000044004024
:101FD000BC010020704700008307FF22DB0E9A40FF
:101FE0008907090E994000280BDA0007000F08380E
:101FF000830808489B001818C36993430B43C361C7
:102000007047830804489B001B18186890430843D6
:102010001860704700ED00E000E400E07047000049
:1020200030B50B4D012805D010D90221401E297072
:10203000C4B208E00120287008E02878022101F0ED
:10204000FBFB2870E4B2641E002CF6DC004830BDB7
:102050009C000020F8B506460D46002000F0E0F890
:102060000127FF03092000223946C006FEF702FDC2
:10207000772000F03BF9002405E0AA2000F036F9B3
:102080003055641CE4B2AC42F7D309200122394632
:10209000C006FEF7EFFCF8BDF8B50446002000903E
:1020A00000F0BEF801260925F603ED0600223146B0
:1020B0002846FEF7DFFC152000F018F9204600F056
:1020C00015F9012231462846FEF7D4FC012000F024
:1020D000A7F800246F46AA2000F008F93855684692
:1020E000641C4178E4B20170022CF4D30122314621
:1020F0002846FEF7BFFCF8BDFEB506461A4801901B
:102100000546044607462134103534371021204651
:10211000FEF736F810210198FEF732F81121284613
:10212000FEF72EF811213846FEF72AF810220F4943
:102130000198FDF7FEFF0D4910221031681CFDF7D4
:10214000F8FF13220A492046FDF7F3FF3B460095AE
:1021500021463046019AFFF795FD207CF070607CA7
:10216000F071A07CF072FEBD980A0020F43F0008D8
:10217000680B00207CB50120254C00032080254DF4
:10218000012280212846FEF775FC022001F022FB87
:10219000002280212846FEF76DFC0A2001F01AFB80
:1021A00009266D01F606002229463046FEF762FC3C
:1021B000022000F09BF8012000F098F8002000F0C9
:1021C00095F8012000F092F8C92000F08FF8C320A4
:1021D00000F08CF8802000F089F801222946304672
:1021E000FEF748FC022001F0F5FA00231A461946D2
:1021F0006846FEF721FAFEF797FA2020208006486D
:1022000040880649884201D001207CBD00207CBD69
:102210004800002000040048560500203844000013
:10222000F8B507461C48048801250926ED03F60683
:10223000002229463046FEF71DFC442000F056F8E7
:102240000EE0012229463046FEF714FC0022294602
:102250003046FEF70FFC442000F048F8641EA4B29C
:10226000C02000F043F8FF2802D0002CE9D109E09B
:10227000002C07D0002F04D1012229463046FEF75A
:10228000F9FBF8BD012229463046FEF7F3FB03496E
:1022900002200870F8BD0000480000204200002025
:1022A000F8B50F460B46154600920321044600225E
:1022B000C90200F02BF82026002812D13B4600224C
:1022C00080212046009500F06CF8002809D10321F8
:1022D0003B46002249022046009500F017F80028EE
:1022E00003D0206E304320660320F8BD01B582B0D4
:1022F00064200090012301AA02A90348FEF7A6FF6B
:10230000684600790EBD0000A8000020F8B51D4603
:1023100017460E4604463DE0032149028E4205D190
:10232000002F03D1017B684601700078681C31D012
:10233000002D05D0FEF7A4FB0699401AA84229D328
:1023400020684168E022914341606068C11FFD3907
:102350000CD10121A068C903884202D049118842EA
:1023600004D1206801684022914301600120A16AE4
:102370004003814207D121680A6882430A602168CC
:102380000A6802430A600120403460770020207709
:102390000320F8BD206881683140B942BCD10020DB
:1023A000F8BDF8B51D4617460E46044633E0681CD6
:1023B00031D0002D05D0FEF763FB0699401AA842E4
:1023C00029D320684168E022914341606068C11FC1
:1023D000FD390CD10121A068C903884202D04911FE
:1023E000884204D1206801684022914301600120A5
:1023F000A16A4003814207D121680A6882430A60CA
:1024000021680A6802430A60012040346077002096
:1024100020770320F8BD206881683046884304D0C7
:102420000020B842C3D10020F8BD0120F9E730B543
:10243000002305E004885D005B1C4C539BB2801CAC
:102440009342F7D330BD0000F7B582B01F21029848
:10245000C906441801200004154684425DD2FEF7E7
:102460003DFA0298A70A8005C60D01204002841B90
:10247000A54200D82C460120B902C0060818012246
:10248000520227490090FFF7D2FF0020254907E0BC
:1024900032185300224AD25A8A4203D1401C80B2D9
:1024A000A042F5D3A0422FD20098FEF743F81E4871
:1024B000FEF77EF81D480169022291430161002068
:1024C00008E003994200895A82195300144A401CBB
:1024D000D15280B2A042F4D3012252021049009896
:1024E00000F026F8A54216D0039960004118039128
:1024F0000299002640180290281B012485B264022C
:102500007F1CA542B7D8B5E70748FEF751F8224629
:1025100003990298E4E7FEF799F905B0F0BD0000D1
:1025200060050020FFFF000050C3000000200240B3
:10253000F8B516460F460546002409E060003A5AF1
:10254000002329460120FEF78BF9641CA4B2AD1CC0
:10255000B442F3D3F8BD7047F8B5054600242046D1
:10256000FFF75EFE01260927F603FF06002231462B
:102570003846FEF77FFA04E0285DFFF7B7FE641CDB
:10258000E4B2A878001DA042F6D8012231463846B0
:10259000FEF770FAF8BD0000FEB500250446009570
:1025A0002B462A46294668460195FEF745F86846B7
:1025B00002798178D30701264748002B00D0C680D6
:1025C00012070327002A00DA07710A0703D504213E
:1025D0004171C580FEBDCA0631D506468078002807
:1025E00022D0F178002905D0302250430019C01CB8
:1025F000FFF730FDFEF754F83848C1786170417834
:10260000212905D34178262906D94178482903D2C2
:1026100040783349085C2070E078C01EA0702079B3
:1026200020707771F580FEBD0421E01CFFF712FDDC
:10263000E0780328DED9C01EC1B2E01DD8E7CA0782
:1026400020D041790329EED00546807800280CD0AF
:10265000302148430019C01CFFF7FCFCE8783038F3
:10266000E870A878401CA870FEBD0421E01CFFF7AC
:10267000F1FC2C21E01DFFF7EDFCE0782F38E8702D
:10268000AE70FEBD8A0606D5057006214171C801EF
:1026900020180571FEBD8907FCD501780646302952
:1026A0000ED97078302148430019FF30433000F0D4
:1026B00023FD7078401C7070307830383070FEBD6B
:1026C0000029FCD07078302250430019FF3043308D
:1026D00000F012FD3570FEBD3E00002056050020C2
:1026E0000E3A000810B55348FFF736FF51481E3820
:1026F000FFF732FF4F481830FFF72EFF4D484930A3
:10270000FFF72AFF4B486130FFF726FF49481F308B
:10271000FFF722FF47481938FFF71EFF45486A3088
:10272000FFF71AFF43482630FFF716FF414886306F
:10273000FFF712FF3F489630FFF70EFF3D48343059
:10274000FFF70AFF3B481438FFF706FF39483B30D4
:10275000FFF702FF37485930FFF7FEFE3548A63035
:10276000FFF7FAFE33482D30FFF7F6FE3148801DA3
:10277000FFF7F2FE2F480C30FFF7EEFE2D480F3822
:10278000FFF7EAFE2B48AF30FFF7E6FE2948B830E6
:10279000FFF7E2FE2748C830FFF7DEFE2548D830B5
:1027A000FFF7DAFE23485130FFF7D6FE2148E83024
:1027B000FFF7D2FE1F487A30FFF7CEFE1E48FFF724
:1027C000CBFE1C48F330FFF7C7FE1C48FFF7C4FEE2
:1027D0001A481030FFF7C0FE18482030FFF7BCFE43
:1027E00016483030FFF7B8FE12484230FFF7B4FE0B
:1027F00011482838FFF7B0FE0F482038FFF7ACFE2D
:102800000D481838FFF7A8FE0B481038FFF7A4FE54
:1028100008481230FFF7A0FE06480A38FFF79CFE72
:102820000448401FFFF798FE03480838FDF7E8FE0C
:1028300010BD0000743A000872000020773B0008C9
:102840007FB50025184E0446FF2102952A46013126
:1028500030460395FEF70EF9012251023046FEF78D
:1028600009F900231A46194602A8FDF7E5FE0F4EA6
:102870003079012815D0412C00D941240220FFF7DE
:102880000BFC032008210090019109480023005D02
:102890001A46194600F082F8B570F5700120707183
:1028A000002004B070BD0000000400483E0000207D
:1028B000CC390008F0B51C4685B013460022054609
:1028C0000292684603920E46028031480079012840
:1028D0005BD0FB2C00D9FB24412E00D941260020DF
:1028E00006E02F18FF37195C0137401CB971C0B2E0
:1028F000A042F6D3032000022F18E01CE87001214B
:102900002E71704069714840A871002078710A46A4
:1029100009022048FEF7AEF80121002249021D48B5
:10292000FEF7A8F80320FDF741FD00231A461946DB
:1029300002A8FDF781FE0120FFF7AEFBE81DFF3086
:1029400000903C2C09D9204611493C3808700421DC
:10295000E81C00F0D1FB3C2107E00D490020087085
:102960000421E81C00F0C8FB2146009800F0C4FBDD
:10297000074D05206871012038710748221D805DD0
:10298000302100F03AF80020687005B0F0BD00007A
:102990003E00002000040048CC390008FFB581B09B
:1029A000144600200B9FFFF73BFC01250926ED0391
:1029B000F606002229463046FEF75CF83220FFF783
:1029C00095FC0198FFF792FC0298FFF78FFC00201E
:1029D000FFF78CFCE0B2FFF789FC0498FFF786FC58
:1029E0000A98FFF783FC3846FFF780FC012229464E
:1029F0003046FEF73FF805B0F0BDF7B50746144680
:102A00000020FFF70DFC01250926ED03F606002244
:102A100029463046FEF72EF83120FFF767FC38468E
:102A2000FFF764FC0198FFF761FC0020FFF75EFCF4
:102A3000E0B2FFF75BFC012229463046FEF71AF8A8
:102A4000FEBD10B5FEF722F8FEF74AFD10BD70B5C9
:102A500094B000241020099402250490052001263A
:102A60000095C00403960A9008950B946846FEF7FB
:102A7000C3F9002800D0FEE707200C900E94012136
:102A80000D950F940CA8FEF7CFF8002800D0FEE7B4
:102A900010A810961294FEF753F8002800D0FEE715
:102AA000FEF758F97D21C900FDF71CFBFEF700FD7C
:102AB0000420FEF7EFFC00221146501EFEF73CF802
:102AC00014B070BD134801680122114301604168D0
:102AD000114A114041600168104A114001600168CB
:102AE000012292049143016041683F221204914304
:102AF0004160C16A09090901C162016BFF221432F8
:102B000091430163416B49084900416300218160A1
:102B100070470000001002400CB8FF08FFFFF6FEEF
:102B200010B50248FEF7BDFD10BD00000C010020ED
:102B3000F0B502681A4B1B4C984201D0A04203D159
:102B40007025AA434D682A43174D184E184F9842D6
:102B50000AD0A04208D0174CA04205D0A84203D00A
:102B6000B04201D0B84205D1144603221202944368
:102B7000CA6822438024A2434C69224302608A68C7
:102B8000C2620A688262984205D0A84203D0B0426D
:102B900001D0B84201D10969016301214161F0BD51
:102BA000002C01400004004000400140004401406E
:102BB000004801400020004030B58468FF252D0208
:102BC0001B021343AC430B432343836030BD826835
:102BD00070239A430A4307210A438260704730B545
:102BE000036A046A6408640004628469F025AC43E3
:102BF000120122430A24A3430B438261036230BDC6
:102C000030B5036A1024A34303628469036A0F2565
:102C10002D031203AC432243A024A343090119430B
:102C20008261016230BD10B5818CC90707D001688F
:102C30004A6801235B049A43836A1A434A60818C81
:102C4000890707D501684A6801231B049A43C36AB0
:102C50001A434A60818C490707D501684A680123F5
:102C60009B049A43036B1A434A60818C090707D57A
:102C700001684A680123DB039A43436B1A434A60A5
:102C8000818CC90607D50268916801231B0399430B
:102C9000836B19439160818C890607D501688A6826
:102CA00001235B039A43C36B1A438A60818C4906F4
:102CB00012D503685A6801210905046C8A4322432E
:102CC0005A60026C8A4207D10268516803235B058F
:102CD0009943436C19435160818C090607D50168FB
:102CE0004A680123DB04806C9A4302434A6010BDAA
:102CF0000021C16620226030427282720172084651
:102D0000704710B5406A0022014640314A834A822A
:102D1000FEF789FD10BD01680A68FF2321339A433D
:102D20000A6001688A68520852008A602021603077
:102D30008172704710B501680A6840239A430A609F
:102D4000202269210A54FEF703FF002010BD70B550
:102D50000246403203466033948B9D7A0168222DEF
:102D600005D08869082210438861022070BD898CD3
:102D7000012685683603B54202D10569002D0BD0C6
:102D80002140446D651C45652170518B491E090425
:102D9000090C518307D015E0456D21402980416D14
:102DA000891C4165F1E701680A68FF242134A243C8
:102DB0000A6001688A68520852008A60202199726C
:102DC000FEF782FE002070BDF8B504462369A268B4
:102DD000E5691A43636910202B43002125681A43D3
:102DE0002B680E463E4F3B4013432B6023685A68C6
:102DF00003252D03AA43E5682A435A60236AA26982
:102E000025681A43AB680B273F02BB431343AB60F3
:102E1000344A2568954210D1334A126B9207920FBB
:102E20000ED0012A05D0022A05D0032A09D102209A
:102E300007E0042005E0082003E02C4A954200D179
:102E400000200122E369D203934224D100280CD050
:102E500002280DD0042813D0082817D001260A090B
:102E600012010807400F10432FE0FDF779FF09E03A
:102E700061681F4A48088018FDF734F981B2EEE70F
:102E8000FDF77EFF616840004A08F4E761680122AF
:102E900048081204EFE7002808D0022809D00428C7
:102EA0000BD0082814D001263046F8BDFDF758FF96
:102EB00005E061680F4A48080CE0FDF761FF6168B2
:102EC0004A088018FDF70EF980B22168C860EBE768
:102ED000616848088018FDF705F980B2E860E3E70B
:102EE000F369FFFF00380140001002400044004039
:102EF0000024F40000127A006921095C212901D024
:102F00000220704702464032518A002912D0012324
:102F100081681B03994202D10169002915D0C16C57
:102F20004B1CC364006809780185508A401E50829A
:102F30000020704701680A6880239A430A6000688D
:102F40000168402211430160F2E7C16C03680988FF
:102F5000C905C90D1985C16C891CC164E5E700006C
:102F600010B50848FEF766FC0648FEF75DFC202811
:102F7000FAD1012204490348FEF762FD0028F8D186
:102F800010BD00004C0100203C00002010B5084896
:102F9000FEF750FC0648FEF747FC2028FAD1012234
:102FA00004490348FEF74CFD0028F8D110BD00008D
:102FB000BC0100203D00002030B50C460546002332
:102FC00006E021782846641C00F005F85B1CDBB2A3
:102FD0009342F6D330BD0185C1694906FCD57047DF
:102FE00010B50A7A002A0ED14A7A0424130000F0A0
:102FF0001DF906040B0F202E360A682803D10A6833
:1030000010700120487210BD0A6850700220F9E764
:1030100000230322002803D0202805D94B7210BDBD
:10302000086883704C7202E00B6898704A72CA801C
:1030300010BDCB880A68D054C888401C82B2CA80B0
:1030400008688078C01C8242F2D34C7210BDCB88D5
:103050000A68D054C888401CC8800520D2E7CB88B5
:103060000A68D054C888401CC88006224A728880EA
:1030700010BD000010B501680A78AC2A15D1C088CF
:1030800008182038C07F53280FD103220748891C15
:10309000FDF74FF805490F221A390548FFF7D4F913
:1030A0000448FDF789FB00F007F810BD2A00002056
:1030B00000F800084600002010B5032401E0641E5B
:1030C000E4B2FFF757F8002802D0002CF7D105E052
:1030D000002C03D0FFF706FB002010BD044901209F
:1030E0000871024680210348FDF7C4FC012010BD91
:1030F0003E00002000040048F8B506460D460020BA
:10310000FFF78EF80127FF03092000223946C00689
:10311000FDF7B0FC6620FFF7E9F8002404E0305D1D
:10312000FFF7E4F8641CE4B2AC42F8D309200122B2
:103130003946C006FDF79EFCF8BDF8B515460E46AB
:103140000746002409E0385D00F0C6FA020A610073
:1031500072548919641C4870E4B2AC42F3D3680617
:10316000000EF8BD70B598B000242022184910A8B0
:10317000FCF7DFFF20216846FDF702F8202108A8B0
:10318000FCF7FEFF0922694610A8FFF7D6FF0546A7
:103190006E4605E0315D0FA000F038F8641CE4B223
:1031A000AC42F7D32A4608A9684600F019F805464C
:1031B0000AA000F02BF8002408AE05E0315D05A060
:1031C00000F024F8641CE4B2AC42F7D318B070BD30
:1031D000D43D000825303258200000000D0A0000C0
:1031E000F8B515460F46064600240AE06000315C3B
:1031F000801940780902084300F0ABFA3855641C86
:10320000E4B2AC42F2D36808F8BD00000FB410B5C8
:1032100003A9044B044A029800F024F810BC08BC2F
:1032200004B0184725380008A400002030B47446C4
:10323000641E2578641CAB4200D21D46635D5B00B2
:10324000E31830BC184702E008C8121F08C1002A62
:10325000FAD170477047002001E001C1121F002A17
:10326000FBD17047FFB591B00F460546002606E03A
:1032700025280AD0149A139990476D1C761C28783B
:103280000028F5D1304615B0F0BD0024009401218E
:10329000F34A029400E004436D1C2B780846203B5F
:1032A00098401042F7D128782A280ED00221287899
:1032B0000246303A092A15D8009A0A235A43303A6E
:1032C00080180C436D1C0090F1E701CF009000289E
:1032D00005DA012040030443009840420090022098
:1032E00004436D1C28782E2815D1042004436878E7
:1032F0006D1C2A280AD101CF6D1C02900BE00299A7
:103300000A225143303940186D1C0290287801463A
:1033100030390929F3D928786C2810D006DC4C28DC
:103320001AD068280ED06A2817D104E0742813D068
:103330007A2812D110E00120400504430CE001215D
:10334000090501E0032109050C436978814203D195
:103350000120000524186D1C6D1C287803906E2830
:103360001ED00CDC632831D004DC00288AD0582819
:1033700011D1B2E064287BD069280CD178E07328A1
:103380002DD004DC6F2870D0702804D1A7E07528F8
:103390006CD078286BD0149A13999047761C62E011
:1033A0006002400F022807D003280AD0042838689A
:1033B0000AD006603F1D56E03868F117066041608C
:1033C000F8E738680680F5E70670F3E7387869466D
:1033D00008740020487404A80390012003E03868B2
:1033E00003900020C0433F1D61070FD5002101E07D
:1033F0000199491C029A0191914213DA8142F7DB4B
:10340000019A0399895C0029F2D10BE0002101E0C7
:103410000199491C01918142FADB019A0399895C67
:103420000029F5D101990098139A401A009021467D
:10343000149B00F03BF901998019461807E00398A6
:1034400003990078491C0391149A139990470198A5
:10345000401E0190401CF2D12146149B139A009803
:1034600000F014F986196D1C09E741E033E034E0FF
:103470000A200021049005916002410F022905D025
:1034800001CFC2179446032905D007E0FF1DFF08AE
:10349000FF0003CF06E000B2C2179446042902D110
:1034A00040B2C1178C4600226146944506DA0A46AE
:1034B0000021404291418C462D2102E0210504D596
:1034C0002B216A461176012103E0E10701D020217A
:1034D000F7E7019154E00A200BE0102009E01020EA
:1034E000049000210420044308200591029003E089
:1034F00008200021059104906002410F022905D0A7
:1035000001CF00229446032906D006E0FF1DFF08E4
:10351000FF0003CF8C4603E080B2042900D1C0B283
:103520000021019121072BD50399702906D0049A17
:103530001021059B4A401A4305D00EE040216A46FF
:103540001176012108E06146014306D030216A4628
:1035500011760399517602210191049A0821059B65
:103560004A401A430CD16146014301D1610707D596
:1035700030216A461176012101910299491E02917A
:103580000399582904D037A103910FA90F910DE099
:1035900039A1F9E76146059B049AFCF709FE039BF4
:1035A0008C469B5C0F9A521E0F921370614601432A
:1035B000F0D10F9807A9081A20300390600704D5AE
:1035C000012000048443029801E001200290039945
:1035D000884201DD401A00E0002041180290019865
:1035E00009180098401A0090E00306D42146149B65
:1035F000139A009800F05AF886190020049008E009
:1036000006A9085C149A139990470498401C761CEC
:10361000049001998842F3DBE0030CD52146149B0A
:10362000139A009800F042F8861904E0149A3020AA
:1036300013999047761C0299481E02900029F5DCE8
:1036400008E00F980F990078491C0F91149A13996C
:103650009047761C0399481E03900029F1DCFBE695
:103660000928010030313233343536373839616258
:10367000636465660000000030313233343536371C
:10368000383941424344454600000000F8B504463D
:1036900000251E461746880404D405E0394620203C
:1036A000B0476D1C641EF9D52846F8BDFFB5044629
:1036B000002581B01E46C80301D5302700E0202731
:1036C000880404D505E038460399B0476D1C641E94
:1036D000F9D5284605B0F0BD70B5044600F007F8EE
:1036E00005022007000E00F002F8284370BD000913
:1036F000000101210843010942098918820989183A
:10370000C90701D008210843010942098918C209E3
:103710008918C90701D004210843010982098918C1
:10372000C2098918C90701D002210843704710B5A2
:1037300003780C786340137043784C78634053707F
:1037400083788C7863409370C078C9784840D07093
:1037500010BD70B50446000A00F008F805092D01F7
:10376000E0B200F003F80009284370BD70B502090B
:103770004109511884090B19C5085B19DD07C309F4
:10378000C9181219D218860843088919D218002DB1
:103790000ED0C90706D0D10701D0102100E02021AA
:1037A000484070BDD10701D04021F9E70821F7E773
:1037B000C90705D0D10701D08021F1E70421EFE747
:1037C000D107EED00221EBE7014908607047000005
:1037D0000000002070B500247D260546F60003E0B9
:1037E000304600F005F8641CAC42F9D370BD00000F
:1037F00070B50A4C002365690949A2690968484304
:10380000A1699142FCD0914201D2521A01E06E1A94
:10381000B218D3180A468342F2D370BD00E000E02C
:10382000000000200349088102492039CA69520674
:10383000FCD570472038014030B500231A461B25BF
:10384000CC0700D04340C4094006E401000E002C20
:1038500000D06840521C4908D2B2082AF0D318465A
:1038600030BDFEB50F462C21029100218A00835CF9
:10387000BB541318D2195C7854709C789470491C0E
:10388000DB78C9B2D3700429F0D30426B000C5197F
:103890002C460190203C217F68460170617F417079
:1038A000A17F8170E17FC170B0070DD1684600F043
:1038B00063F8684600F06CF8B008FEF7B1FB6A46A2
:1038C00001461046FFF733FF6846217C0078761CDE
:1038D00041400198F6B239546846617C40784140D5
:1038E00069706846A17C80784140A9706846E17C97
:1038F000C0784140E97002988642C7D3FEBD0000FF
:10390000FDF7CCF8FFF7A3F83020FFF75DFFFEF7D7
:1039100073FAFEF743FBFEF725FBFEF7CFFAFEF73F
:10392000F3FA1148FDF73AFE0F4801220F494030E3
:10393000FEF786F80C4801220D49B030FEF780F8FA
:10394000FFF710FCFCF7C8FD0A48FCF735FFFCF751
:1039500081FCFFF7B1FB07480078FEF771FFFCF729
:10396000CBFCFCF795FCFAE70C0100203C000020A2
:103970003D000020460000200278002143185B78BB
:103980004354491CC9B20329F8D3C27070470000E0
:1039900010B5074B0021425C140912072401120FD5
:1039A000A2189A5C4254491CC9B20429F3D310BD31
:1039B000F43D0008000000000000000001020304C4
:1039C000060708090000000001020304184200274E
:1039D00001280229032A042B052C062D072E082F67
:1039E00009300A310B320C330D340E350F361037D7
:1039F00011381239133A143B153C163D173E193F46
:103A00001A401B411C431D441E451F46204702040B
:103A100006080A0C0E10121416181A1C1E20222456
:103A200026282A2C2E3000323436383A3C3E405874
:103A30005858585858030507090B0D0F111315173F
:103A4000191B1D1F21232527292B2D2F31333537F6
:103A500001393B3D3F411100010360111201060194
:103A600011200135E011200157001120014AFF11FA
:103A70001201000411000200520011200250840AB9
:103A80001120025403071112020B30301101030000
:103A9000033B01111103000198F31120030A0006F2
:103AA000761120034C3100201120033001CDA011EC
:103AB000200338111515111203080A010011020420
:103AC000000305000A11220400087F001D112004D4
:103AD000402A0CA42211100500640A000A121120C9
:103AE0000C000300070C350009C9C3800005114014
:103AF0000800400AAAAA369D20FE11200C180100D9
:103B000008038000202000E8005E11200C240576C8
:103B10001A05720200000012815E112005450300A3
:103B2000DE01001120055B400406782011210C0005
:103B3000A28126AF3FEEC8C7DBF2020811210C0CB0
:103B4000070315FC0F00A28126AF3FEE11210C18D0
:103B5000C8C7DBF20208070315FC0F00112307009A
:103B60002C0E0B040C730311500C0CFFFFFFFFFF16
:103B7000FFFFFFFFFFFFFF11500C18FFFFFFFFFFCC
:103B8000FFFFFFFFFFFFFF11500C24FFFFFFFFFFB0
:103B9000FFFFFFFFFFFFFF11500C30FFFFFFFFFF94
:103BA000FFFFFFFFFFFFFF1150063CFFFFFFFFFF7E
:103BB000FF0000C1814001C0804101C0804100C1BF
:103BC000814001C0804100C1814000C1814001C0ED
:103BD000804101C0804100C1814000C1814001C0DD
:103BE000804100C1814001C0804101C0804100C1CD
:103BF000814001C0804100C1814000C1814001C0BD
:103C0000804100C1814001C0804101C0804100C1AC
:103C1000814000C1814001C0804101C0804100C19C
:103C2000814001C0804100C1814000C1814001C08C
:103C3000804101C0804100C1814000C1814001C07C
:103C4000804100C1814001C0804101C0804100C16C
:103C5000814000C1814001C0804101C0804100C15C
:103C6000814001C0804100C1814000C1814001C04C
:103C7000804100C1814001C0804101C0804100C13C
:103C8000814001C0804100C1814000C1814001C02C
:103C9000804101C0804100C1814000C1814001C01C
:103CA000804100C1814001C0804101C0804100C10C
:103CB000814000C0C101C30302C2C60607C705C5D3
:103CC000C404CC0C0DCD0FCFCE0E0ACACB0BC90944
:103CD00008C8D81819D91BDBDA1A1EDEDF1FDD1D54
:103CE0001CDC14D4D515D71716D6D21213D311D184
:103CF000D010F03031F133F3F23236F6F737F535D4
:103D000034F43CFCFD3DFF3F3EFEFA3A3BFB39F903
:103D1000F83828E8E929EB2B2AEAEE2E2FEF2DEDD3
:103D2000EC2CE42425E527E7E62622E2E323E12143
:103D300020E0A06061A163A3A26266A6A767A56553
:103D400064A46CACAD6DAF6F6EAEAA6A6BAB69A9C3
:103D5000A86878B8B979BB7B7ABABE7E7FBF7DBDD3
:103D6000BC7CB47475B577B7B67672B2B373B17103
:103D700070B05090915193535292965657975595D3
:103D800094549C5C5D9D5F9F9E5E5A9A9B5B995983
:103D90005898884849894B8B8A4A4E8E8F4F8D4D53
:103DA0004C8C4484854587474686824243834181C3
:103DB0008040000001CC01D8001401F0003C002834
:103DC00001E401A0006C007801B40050019C01885E
:103DD0000044000068010203040506683105010281
:103DE0000304053016000000000000000000000081
:103DF00000000000637C777BF26B6FC53001672B9E
:103E0000FED7AB76CA82C97DFA5947F0ADD4A2AFCE
:103E10009CA472C0B7FD9326363FF7CC34A5E5F1DC
:103E200071D8311504C723C31896059A071280E28A
:103E3000EB27B27509832C1A1B6E5AA0523BD6B3DE
:103E400029E32F8453D100ED20FCB15B6ACBBE394E
:103E50004A4C58CFD0EFAAFB434D338545F9027F3A
:103E6000503C9FA851A3408F929D38F5BCB6DA21F3
:103E700010FFF3D2CD0C13EC5F974417C4A77E3D1F
:103E8000645D197360814FDC222A908846EEB81475
:103E9000DE5E0BDBE0323A0A4906245CC2D3AC6238
:103EA0009195E479E7C8376D8DD54EA96C56F4EA43
:103EB000657AAE08BA78252E1CA6B4C6E8DD741F54
:103EC0004BBD8B8A703EB5664803F60E613557B917
:103ED00086C11D9EE1F8981169D98E949B1E87E9D1
:103EE000CE5528DF8CA1890DBFE6426841992D0F80
:103EF000B054BB1652096AD53036A538BF40A39ED0
:103F000081F3D7FB7CE339829B2FFF87348E4344B8
:103F1000C4DEE9CB547B9432A6C2233DEE4C950B14
:103F200042FAC34E082EA16628D924B2765BA24974
:103F30006D8BD12572F8F66486689816D4A45CCC93
:103F40005D65B6926C704850FDEDB9DA5E15465766
:103F5000A78D9D8490D8AB008CBCD30AF7E458059C
:103F6000B8B34506D02C1E8FCA3F0F02C1AFBD03A8
:103F700001138A6B3A9111414F67DCEA97F2CFCE79
:103F8000F0B4E67396AC7422E7AD3585E2F937E814
:103F90001C75DF6E47F11A711D29C5896FB7620E56
:103FA000AA18BE1BFC563E4BC6D279209ADBC0FE37
:103FB00078CD5AF41FDDA8338807C731B1121059E4
:103FC0002780EC5F60517FA919B54A0D2DE57A9FD6
:103FD00093C99CEFA0E03B4DAE2AF5B0C8EBBB3CCB
:103FE00083539961172B047EBA77D626E16914634F
:103FF00055210C7D000000000000000000000000C2
:1040000000083399A4D9B2E8347FBEF714FA7432A9
:10401000A357C6AD00000000000000070001020326
:10402000040506004440000800000020A80000002D
:1040300046320008EC400008A8000020D80E00001E
:1040400056320008000000000000000000000000E0
:1040500000000000000000000000000000A3A6898E
:1040600026AFA71329330AB1A215F8FBDB00000025
:1040700000000000000000000000000000127A00B4
:10408000000000000000000000000000000011120D
:10409000040D000106A211120411010002221112E6
:1040A00004210001068211120425010002021320DE
:1040B00000000000000011500C001003040404FF75
:1040C000FFFFFFFFFFFF00006C0900200000000061
:1040D00000000000670A002000000000000000004F
:0C40E000020000000000000000000000D2
:04000005080000B53A
:00000001FF
